:020000040800F2
:10000000F80F002499030008595E0008695B000896
:10001000515E0008A90600081185000800000000D4
:10002000000000000000000000000000F164000873
:10003000B10B000800000000615E0008F9640008D0
:10004000B7030008B7030008B7030008B7030008A8
:10005000B7030008B7030008B7030008B703000898
:10006000B7030008B7030008B70300081907000822
:10007000290700083907000849070008B7030008E6
:10008000B7030008B7030008B7030008B703000868
:10009000B7030008B7030008B7030008B703000858
:1000A000B7030008A9660008B7030008B7030008F3
:1000B000B7030008B7030008B7030008B703000838
:1000C000B7030008B7030008B7030008B703000828
:1000D000B7030008B7030008F18400080185000891
:1000E000B7030008B703000800000000B7030008CA
:1000F000B7030008B7030008B7030008B7030008F8
:10010000B7030008B7030008B7030008B7030008E7
:10011000B703000831680008B7030008B7030008F8
:10012000B7030008B7030008B7030008B7030008C7
:10013000B7030008B7030008B7030008B7030008B7
:1001400000000000000000000000000000000000AF
:10015000B7030008B7030008B7030008B703000897
:10016000B7030008B7030008B7030008B703000887
:10017000B7030008B7030008B70300080000000039
:10018000B7030008B7030008B7030008B703000867
:10019000B7030008B7030008B7030008B703000857
:1001A000B7030008B7030008B70300080000000009
:1001B000B7030008B7030008B7030008B703000837
:1001C000B7030008B70300080000000000000000AB
:1001D0000000000000000000B7030008000000005D
:1001E000000000000000000000000000000000000F
:1001F0000000000000000000B7030008B70300087B
:10020000B7030008B703000800000000B7030008A8
:10021000B7030008B7030008B7030008B7030008D6
:10022000B703000800000000B7030008000000004A
:10023000B7030008B703000800000000B703000878
:10024000B7030008B7030008B7030008B7030008A6
:10025000B7030008B7030008B7030008B703000896
:10026000B7030008B7030008B7030008B703000886
:10027000B7030008B7030008B70300080000000038
:10028000B7030008B7030008B7030008B703000866
:1002900000000000B7030008B703000800000000DA
:1002A00000000000B7030008B7030008B703000808
:1002B000B7030008B7030008B7030008B703000836
:1002C000B7030008B7030008B703000800F002F8FE
:1002D00000F052F814A696E8000CB244B344DA4594
:1002E00001D100F049F8BAE80F000FA696E83000F7
:1002F000A5EB040504EB0607AAEB0704A7F1010729
:100300004FEA15154FEA3414A4F10104AC4201D3AD
:1003100000F032F813F0010F18BFFB1A43F001038D
:1003200000F001F8DBE71847C49F0000E49F0000DD
:10033000103A24BF78C878C1FAD8520724BF30C811
:1003400030C144BF04680C60704700007047000073
:100350000023002400250026103A28BF78C1FBD8CE
:10036000520728BF30C148BF0B6070471FB509F066
:1003700002FA1FBD10B510BD00F05EF91146FFF77F
:10038000F5FF08F0D5FA00F07CF903B4FFF7F2FFAF
:1003900003BC00F07FF900000A4880470A48804704
:1003A0000A480047FEE7FEE7FEE7FEE7FEE7FEE756
:1003B000FEE7FEE7FEE7FEE705480649064A074B6B
:1003C00070470000C90B0008D1650008CD02000885
:1003D000F8090024F80F0024F80B0024F80B00247F
:1003E00053EA020C00F069802DE9F04B4FF0000653
:1003F000002B1FBFB3FA83F503FA05F424FA05F6C0
:100400005E4012BF1643B2FA82F502FA05F4C5F156
:1004100020051EBF22FA05FC44EA0C04203556EAEA
:10042000044C4FEA144418BF641C4FF000084FF00E
:100430000009904271EB030C39D3002919BFB1FABE
:1004400081F701FA07F6B0FA80F700FA07F6C7F16C
:1004500020071EBF20FA07FC46EA0C062037B6FB31
:10046000F4FCA7EB0507103F07F01F0BCBF12006AC
:100470002CFA06F60CFA0BFB44BFB3460026202FDD
:10048000A4BF5E464FF0000B5BEA060C08BF4FF0BE
:10049000010B19EB0B0948EB0608ABFB027C06FBD2
:1004A00002CC0BFB03CCC01B71EB0C01C1E70B466C
:1004B000024641464846BDE8F08B13B5084318BFD5
:1004C0004FF0FF300146AFF30080BDE81C4070479D
:1004D000032A40F2308010F0030C00F0158011F870
:1004E000013BBCF1020F624498BF11F801CB00F848
:1004F000013B38BF11F8013BA2F1040298BF00F89C
:1005000001CB38BF00F8013B11F0030300F05A8023
:10051000083AC0F0088051F8043B083A51F804CB7F
:10052000A0E80810F5E7121D5CBF51F8043B40F845
:10053000043BAFF30080D20724BF11F8013B11F850
:1005400001CB48BF11F8012B24BF00F8013B00F894
:1005500001CB48BF00F8012B70474FF0000200B5F7
:10056000134694469646203922BFA0E80C50A0E8D6
:100570000C50B1F12001BFF4F7AF090728BFA0E884
:100580000C5048BF0CC05DF804EB890028BF40F850
:10059000042B08BF704748BF20F8022B11F0804F92
:1005A00018BF00F8012B704770477047704710B5AF
:1005B00000F03AF8006810BD10B5044600F034F8B9
:1005C000046010BD10B5203AC0F00B80B1E818509F
:1005D000A0E81850B1E81850A0E81850203ABFF42D
:1005E000F5AF5FEA027C24BFB1E81850A0E81850CC
:1005F00044BF18C918C0BDE810405FEA827C24BF20
:1006000051F8043B40F8043B08BF7047D20728BFAD
:1006100031F8023B48BF11F8012B28BF20F8023BFC
:1006200048BF00F8012B704700487047A80000241D
:1006300000487047A80000247546FFF7F9FFAE4652
:1006400005006946534620F00700854618B020B5DE
:10065000FFF7B2FEBDE820404FF000064FF0000764
:100660004FF000084FF0000BAC46ACE8C009ACE816
:10067000C009ACE8C009ACE8C00921F007018D460B
:10068000704710B50446AFF300802046BDE8104027
:10069000FFF77BBE01491820ABBEFEE72600020033
:1006A0007047000000000000FEE7000000000000AE
:1006B000B0B540F27C14C2F20044607840B1A0783A
:1006C00018280DD8211822780130A0704A77B0BDC3
:1006D0002078C82818BFB0BD01206070B0BD00BF31
:1006E000E01C04F11D011A2200256570FFF7F0FEE1
:1006F000A570B0BD000000007047000000000000C1
:1007000040F27C101A22C2F20040C11C40F6601078
:10071000C2F2004005F044B940F20C60C2F2004061
:1007200000F062BE0000000040F28460C2F20040AF
:1007300000F05ABE0000000040F2FC60C2F200402F
:1007400000F052BE0000000040F27470C2F200409F
:1007500000F04ABE0000000040F20F42D0F800C096
:10076000C4F20202944511DC6F22C4F202029445E5
:1007700022DC3F22C4F20202944539DC1022C4F28A
:10078000020294455AD0282254E000BF40F26F4242
:10079000C4F2020294451BDC40F23F42C4F2020262
:1007A00094452DDC40F21042C4F20202944545D03B
:1007B00040F228423EE000BF9F22C4F2020294456C
:1007C00028DC7022C4F20202944537D0882231E03E
:1007D00040F29F42C4F20202944523DC40F2704290
:1007E000C4F20202944529D040F2884222E000BFC0
:1007F0004022C4F20202944520D058221AE000BFE1
:1008000040F24042C4F20202944517D040F25842EE
:1008100010E000BFA022C4F2020294450ED0B8221C
:1008200008E000BF40F2B842C4F20202944505D08D
:1008300040F2A042C4F20202944517D10CF0F80233
:100840004AF6AB23103ACAF6AA23A2FB03310AA345
:100850005F2AC1F302115B5C40F2FF312CEA010117
:10086000C36588BF04318165084670472CF0FF01DD
:1008700081650846704700BF000610160006101676
:1008800070B540F26F44D0F800C0C4F20204D0F852
:1008900058E0A4451ADC9F25C4F20205AC4533DCC0
:1008A0005725C4F20205AC455ADC1025C4F20205F6
:1008B000AC4500F098802825C4F20205AC4500F054
:1008C00092804025C4F202058AE000BF45F22F4520
:1008D000C5F60205AC452DDC40F2B745C4F2020571
:1008E000AC454BDC40F27045C4F20205AC457AD011
:1008F00040F28845C4F20205AC4574D040F2A045F0
:10090000C4F202056CE000BF40F22745C4F20205C4
:10091000AC4543DCA025C4F20205AC4563D0B82544
:10092000C4F20205AC455ED040F21045C4F20205A7
:1009300056E000BF45F26B45C5F60205AC453FDC0D
:1009400045F23045C5F60205AC454CD045F244456C
:10095000C5F60205AC4546D045F258453EE000BF1D
:100960005825C4F20205AC453DD07025C4F20205FD
:10097000AC4538D08825C4F2020531E040F2B845D4
:10098000C4F20205AC452ED045F20845C5F6020575
:10099000AC4528D045F21C4520E000BF40F2284578
:1009A000C4F20205AC451ED040F24045C4F2020537
:1009B000AC4518D040F25845C4F2020510E000BF23
:1009C00045F26C45C5F60205AC450CD045F29445A0
:1009D000C5F60205AC4506D045F28045C5F60205D0
:1009E000AC4540F0D080456EC66E002E866E6E60BF
:1009F0001CBFD0E91C566E60A44515DC9F24C4F2D0
:100A00000204A4452CDC5724C4F20204A44551DCA2
:100A10001024C4F20204A4457AD02824C4F20204AB
:100A2000A44575D040246FE045F22F44C5F602047A
:100A3000A44529DC40F2B744C4F20204A44545DCD5
:100A400040F27044C4F20204A44561D040F28844EC
:100A5000C4F20204A4455BD040F2A04454E000BFBD
:100A600040F22744C4F20204A4453FDCA024C4F2AF
:100A70000204A4454CD0B824C4F20204A44547D0D3
:100A800040F2104440E000BF45F26B44C5F602045A
:100A9000A44555DC45F23044C5F60204A44561D0B6
:100AA00045F24444C5F60204A4455BD045F25844DF
:100AB00054E000BF5824C4F20204A44528D0702496
:100AC000C4F20204A44523D088241DE040F2B844B7
:100AD000C4F20204A4451BD045F20844C5F6020442
:100AE000A4453FD045F21C4438E000BF40F2284402
:100AF000C4F20204A4450BD040F24044C4F2020404
:100B0000A44505D040F25844C4F20204A4453AD1A9
:100B10008468C06D00F01F003F2505FA00F0CEF894
:100B20000800DCF80000402C20F48020CCF8000005
:100B3000CCF8043023D1CCF80820CCF80C1070BDD0
:100B400045F26C44C5F60204A4450BD045F280443E
:100B5000C5F60204A44505D045F29444C5F6020446
:100B6000A44510D1C46D012504F01F04806805FA66
:100B700004F4CEF804404028CCF80430DBD0CCF8A4
:100B80000810CCF80C2070BD4EF6FC50CEF20000E0
:100B9000016841F08071016041F200000021CEF255
:100BA00000004160016841F00101016070470000F0
:100BB0007047000000000000EFF3108072B600BF25
:100BC000FEE700000000000044F60400C5F6020045
:100BD000816841F0020181600168890409D40168DB
:100BE00089045CBF01685FEA814102D4016889041D
:100BF000F2D57047000000002DE9F041044601F0F5
:100C0000E7FD1CB3054694F83500022822D140F2D6
:100C10000F462768C4F2020640F26F48B7426FF0F1
:100C20000E00C4F202081DDC6F21C4F202018F42E3
:100C30002ADC3F21C4F202018F4241DC1021C4F2C0
:100C400002018F4263D028215CE000BF0120BDE893
:100C5000F08100BF802060650120002184F83410FD
:100C6000BDE8F08147451BDC40F23F41C4F2020180
:100C70008F422DDC40F21041C4F202018F4246D077
:100C800040F228413EE000BF9F21C4F202018F42A2
:100C900028DC7021C4F202018F4238D0882131E073
:100CA00040F29F41C4F202018F4223DC40F27041C6
:100CB000C4F202018F422AD040F2884122E000BFF4
:100CC0004021C4F202018F4221D058211AE000BF16
:100CD00040F24041C4F202018F4218D040F2584124
:100CE00010E000BFA021C4F202018F420FD0B82152
:100CF00008E000BF40F2B841C4F202018F4206D0C2
:100D000040F2A041C4F202018F42394607D1394670
:100D1000386820F01E0041F8140B6FF080000A685C
:100D2000474500EA020008601ADC9F20C4F2020076
:100D3000874233DC5720C4F2020087425ADC10207D
:100D4000C4F20200874200F097802820C4F202001B
:100D5000874200F091804020C4F202008AE000BF88
:100D600045F22F40C5F6020087422DDC40F2B74025
:100D7000C4F2020087424BDC40F27040C4F2020031
:100D8000874279D040F28840C4F20200874273D093
:100D900040F2A040C4F202006CE000BF40F22740E5
:100DA000C4F20200874243DCA020C4F20200874262
:100DB00062D0B820C4F2020087425DD040F21040F9
:100DC000C4F2020056E000BF45F26B40C5F60200D7
:100DD00087423FDC45F23040C5F6020087424BD0E7
:100DE00045F24440C5F60200874245D045F25840DE
:100DF0003EE000BF5820C4F2020087423CD0702081
:100E0000C4F20200874237D08820C4F2020031E0E9
:100E100040F2B840C4F2020087422DD045F20840AB
:100E2000C5F60200874227D045F21C4020E000BFF3
:100E300040F22840C4F2020087421DD040F24040F8
:100E4000C4F20200874217D040F25840C4F20200B8
:100E500010E000BF45F26C40C5F6020087420BD09F
:100E600045F29440C5F60200874205D045F2804025
:100E7000C5F60200874204D1206E016821F480711A
:100E80000160386820F00100386000BF3868C00792
:100E900010D001F09DFC401B0628F7D32020606590
:100EA000032084F835000120002184F83410BDE8C7
:100EB000F08100BF2068B04210DC6F21C4F2020153
:100EC00088421DDC3F21C4F20201884234DC10213B
:100ED000C4F20201884255D028214FE040451BDC76
:100EE00040F23F41C4F2020188422DDC40F2104141
:100EF000C4F20201884245D040F228413EE000BFE2
:100F00009F21C4F20201884228DC7021C4F2020150
:100F1000884237D0882131E040F29F41C4F202017B
:100F2000884223DC40F27041C4F20201884229D099
:100F300040F2884122E000BF4021C4F20201884211
:100F400020D058211AE000BF40F24041C4F2020113
:100F5000884217D040F2584110E000BFA021C4F2EF
:100F6000020188420ED0B82108E000BF40F2B8412B
:100F7000C4F20201884205D040F2A041C4F202014D
:100F800088425BD1D4E9161202F01F023F2303FA14
:100F900002F28A6040455BDC9F21C4F20201884274
:100FA00014DC5721C4F20201884227DC1021C4F26C
:100FB0000201884200F0A2802821C4F20201884286
:100FC00000F09C804021C4F2020195E040F22741EC
:100FD000C4F2020188421FDCA021C4F2020188424F
:100FE00000F08C80B821C4F20201884200F08680B3
:100FF00040F21041C4F202017EE000BF5821C4F269
:10100000020188427AD07021C4F20201884275D070
:101010008821C4F202016FE040F22841C4F20201CB
:1010200088426BD040F24041C4F20201884265D050
:1010300040F25841C4F202015EE000BFD4E916124A
:1010400002F01F02012303FA02F24A604045A3DDC9
:1010500045F22F41C5F60201884217DC40F2B74144
:10106000C4F20201884227DC40F27041C4F202015E
:10107000884243D040F28841C4F2020188423DD008
:1010800040F2A041C4F2020136E000BF45F26B41DC
:10109000C5F6020188421FDC45F23041C5F6020167
:1010A00088422BD045F24441C5F60201884225D042
:1010B00045F258411EE000BF40F2B841C4F20201BF
:1010C00088421BD045F20841C5F60201884215D07E
:1010D00045F21C410EE000BF45F26C41C5F602012D
:1010E00088420BD045F29441C5F60201884205D0F2
:1010F00045F28041C5F6020188420BD1616EA26EB5
:10110000E06E4A6030B1016821F480710160D4E979
:101110001C014160012084F835000020002184F882
:101120003410BDE8F0810000F0B190F835100229CC
:1011300018D180B540F20F420168C4F20202914218
:1011400014DC6F23C4F20203994225DC3F23C4F26E
:10115000020399423CDC1023C4F2020399425DD0A1
:10116000282357E0802141650120704740F26F43FA
:10117000C4F2020399421BDC40F23F43C4F2020373
:1011800099422DDC40F21043C4F20203994245D04B
:1011900040F228433EE000BF9F23C4F2020399427D
:1011A00028DC7023C4F20203994237D0882331E04F
:1011B00040F29F43C4F20203994223DC40F27043A1
:1011C000C4F20203994229D040F2884322E000BFD2
:1011D0004023C4F20203994220D058231AE000BFF2
:1011E00040F24043C4F20203994217D040F2584300
:1011F00010E000BFA023C4F2020399420ED0B8232E
:1012000008E000BF40F2B843C4F20203994205D09F
:1012100040F2A043C4F20203994277D191424FF0C9
:10122000040280F8352011DC6F20C4F202008142F4
:1012300022DC3F20C4F20200814239DC1020C4F2DB
:101240000200814259D0282054E000BF40F26F4094
:10125000C4F2020081421BDC40F23F40C4F20200B3
:1012600081422DDC40F21040C4F20200814244D0A1
:1012700040F228403EE000BF9F20C4F202008142BD
:1012800028DC7020C4F20200814236D0882031E090
:1012900040F29F40C4F20200814223DC40F27040E1
:1012A000C4F20200814228D040F2884022E000BF10
:1012B0004020C4F2020081421FD058201AE000BF33
:1012C00040F24040C4F20200814216D040F2584041
:1012D00010E000BFA020C4F2020081420DD0B8206F
:1012E00008E000BF40F2B840C4F20200814204D0DE
:1012F00040F2A040C4F202008142086820F00100E0
:1013000008600021BDE88040084670470A6822F066
:101310000E020A6045F25742C5F6020291420A687F
:1013200022F001020A600FDC45F22F42C5F60202EC
:10133000914219DC45F20842C5F60202914229D0D9
:1013400045F21C4222E000BF45F27F42C5F6020290
:10135000914213DC45F25842C5F60202914219D07F
:1013600045F26C4212E000BF45F23042C5F602027F
:1013700091420FD045F2444208E000BF45F294424A
:10138000C5F60202914205D045F28042C5F602023E
:1013900091421AD1D0E9181CD0E916E30A6822F468
:1013A00080720A6003F01F01012202FA01F1CEF8F7
:1013B0000410816ECCF80410C16E31B10A6822F4B9
:1013C00080720A60D0E91C124A60012180F8351051
:1013D000026D0021002A80F8341093D0904790E7E6
:1013E000406D7047000000002DE9F04782B00021F9
:1013F000019140F24C010446C2F2004148F2B5129C
:10140000C1F64E32A56D096840F26F490068C4F21A
:101410000209A1FB021848452E68296816DC9F21A5
:10142000C4F2020188422DDC5721C4F20201884235
:1014300052DC1021C4F2020188427CD02821C4F27F
:101440000201884277D0402170E000BF45F22F4270
:10145000C5F60202904229DC40F2B742C4F2020211
:10146000904245DC40F27041C4F20201884262D0F1
:1014700040F28841C4F2020188425CD040F2A041AF
:1014800054E000BF40F22741C4F2020188423FDC31
:10149000A021C4F2020188424DD0B821C4F2020159
:1014A000884248D040F2104140E000BF45F26B4214
:1014B000C5F60202904275DC45F23042C5F60202E2
:1014C000904200F0828045F24442C5F6020290420A
:1014D0007BD045F2584273E05821C4F202018842A1
:1014E00029D07021C4F20201884224D088211DE055
:1014F00040F2B842C4F2020290421CD045F20842C7
:10150000C5F60202904260D045F21C4258E000BF8E
:1015100040F22841C4F2020188420CD040F240411E
:10152000C4F20201884206D040F25841C4F20201DE
:10153000884240F05183E16D082201F01F0140F222
:101540000F4A8A40C4F2020A324200F0DE8050455F
:101550004FF0040312DC6F27C4F20207B8426DDCBF
:101560003F27C4F20207B84200F39C801027C4F260
:101570000207B84200F0BD802827B5E0484569DC85
:1015800040F23F47C4F20207B84200F3938040F2B2
:101590001047C4F20207B84200F0AB8040F228477F
:1015A000A2E000BF45F26C42C5F6020290420CD0A8
:1015B00045F28042C5F60202904206D045F29442BE
:1015C000C5F60202904240F007830268E36D03F023
:1015D0001F0304279F400F4218BF12F0040623D1B7
:1015E00002279F400F4218BF12F0020642D1D94095
:1015F000090740F1F18212F0080100F0ED82016864
:1016000021F00E010160012000FA03F169606065BC
:1016100084F83500E16C00294FF0000084F83400B4
:1016200040F0D582D8E200BF11046F6034D4910637
:1016300036D4016821F00401016031E09F27C4F233
:101640000207B84240DC7027C4F20207B84250D00B
:10165000882749E040F29F47C4F20207B8423BDCCA
:1016600040F27047C4F20207B84242D040F28847C5
:101670003AE000BF11046F6000F1B282910600F100
:10168000B382016821F00A010160012084F835006D
:10169000002084F83400A7E2D00301D4A16C95E2C5
:1016A000216C93E24027C4F20207B84221D05827A8
:1016B0001AE000BF40F24047C4F20207B84218D017
:1016C00040F2584710E000BFA027C4F20207B8421A
:1016D0000FD0B82708E000BF40F2A047C4F20207CD
:1016E000B84206D040F2B847C4F20207B84218BF69
:1016F000082307681F4208D0036823F0040303602F
:10170000AA60626D42F00102626501228A403242A3
:101710006FD0504510DC6F23C4F2020398421DDCE9
:101720003F23C4F20203984234DC1023C4F20203C4
:10173000984256D028234FE048451BDC40F23F43F7
:10174000C4F2020398422DDC40F21043C4F20203BB
:10175000984246D040F228433EE000BF9F23C4F2A7
:101760000203984228DC7023C4F20203984238D066
:10177000882331E040F29F43C4F20203984223DC05
:1017800040F27043C4F2020398422AD040F28843E8
:1017900022E000BF4023C4F20203984221D0582324
:1017A0001AE000BF40F24043C4F20203984218D04E
:1017B00040F2584310E000BFA023C4F20203984255
:1017C0000FD0B82308E000BF40F2A043C4F20203E8
:1017D000984206D040F2B843C4F20203984240F067
:1017E000058243691B0604D5AA60626D42F00202BD
:1017F000626504228A4032426FD0504510DC6F236C
:10180000C4F2020398421DDC3F23C4F20203984253
:1018100034DC1023C4F20203984256D028234FE050
:1018200048451BDC40F23F43C4F2020398422DDCE2
:1018300040F21043C4F20203984246D040F22843DB
:101840003EE000BF9F23C4F20203984228DC7023CD
:10185000C4F20203984238D0882331E040F29F431B
:10186000C4F20203984223DC40F27043C4F2020344
:1018700098422AD040F2884322E000BF4023C4F2BD
:101880000203984221D058231AE000BF40F240439F
:10189000C4F20203984218D040F2584310E000BF4F
:1018A000A023C4F2020398420FD0B82308E000BF7F
:1018B00040F2A043C4F20203984206D040F2B8437B
:1018C000C4F20203984240F0998103689B0704D553
:1018D000AA60626D42F004026265102202FA01F110
:1018E000314200F0818050454FF0080210DC6F2338
:1018F000C4F2020398421DDC3F23C4F20203984263
:1019000034DC1023C4F20203984256D028234FE05F
:1019100048451BDC40F23F43C4F2020398422DDCF1
:1019200040F21043C4F20203984246D040F22843EA
:101930003EE000BF9F23C4F20203984228DC7023DC
:10194000C4F20203984238D0882331E040F29F432A
:10195000C4F20203984223DC40F27043C4F2020353
:1019600098422AD040F2884322E000BF4023C4F2CC
:101970000203984221D058231AE000BF40F24043AE
:10198000C4F20203984218D040F2584310E000BF5E
:10199000A023C4F2020398420FD0B82308E000BF8E
:1019A00040F2A043C4F20203984206D040F2B8438A
:1019B000C4F20203984218BF04220368134213D0F2
:1019C000A96001684903016808D4C90508D4016801
:1019D00021F008010160216C21B905E008034FD412
:1019E000216C09B120468847E06D00F01F012020DE
:1019F00000FA01F2324200F0AD8020681023504519
:101A000010DC6F27C4F20207B8421DDC3F27C4F286
:101A10000207B84238DC1027C4F20207B8425AD095
:101A2000282753E048451BDC40F23F47C4F2020739
:101A3000B84231DC40F21047C4F20207B8424AD043
:101A400040F2284742E000BF9F27C4F20207B84295
:101A50002CDC7027C4F20207B8423CD0882735E05E
:101A600040F29F47C4F20207B84227DC40F27047B9
:101A7000C4F20207B8422ED040F2884726E000BFE9
:101A8000A16C0029AED1AFE74027C4F20207B842EB
:101A900021D058271AE000BF40F24047C4F20207A5
:101AA000B84218D040F2584710E000BFA027C4F257
:101AB0000207B8420FD0B82708E000BF40F2A047A5
:101AC000C4F20207B84206D040F2B847C4F2020797
:101AD000B84218BF022307681F423BD0AA6094F89F
:101AE0003520042A02681DD122F0160202604269E4
:101AF00022F080024261226C0AB9A26C1AB102681B
:101B000022F0080202603F208840A860012084F88B
:101B10003500216D00294FF0000084F8340056D1C3
:101B20005AE000BF510301680CD4C9050ED4016806
:101B300021F010010160012084F83500002084F8B4
:101B4000340003E0080301D4616C00E0E16B09B1EB
:101B500020468847606D00283ED0606DC00734D0B5
:101B6000042084F8350020684FEA9821026822F0AA
:101B700001020260019A013201928A421AD8026877
:101B8000D20717D0019A013201928A4212D8026814
:101B9000D2070FD0019A013201928A420AD8026814
:101BA000D20707D0019A013201928A4202D8026814
:101BB000D207DFD10068C0074FF0030008BF012043
:101BC00084F83500002084F83400E16C21B120460F
:101BD00002B0BDE8F047084702B0BDE8F08700BF9B
:101BE000D00301D4616CF1E7E16BEFE702680422F6
:101BF0008A4032427FF401AE6FE600BF02686CE6B5
:101C00002DE9F04381B0044600F0E2FD002C00F025
:101C1000AF8040F26F4805462068C4F20208404594
:101C200016DC9F21C4F2020188422DDC5721C4F248
:101C30000201884254DC1021C4F20201884200F003
:101C40007E802821C4F20201884278D0402171E0D0
:101C500045F22F41C5F60201884229DC40F2B74126
:101C6000C4F20201884247DC40F27041C4F2020132
:101C7000884264D040F28841C4F2020188425ED0BA
:101C800040F2A04156E000BF40F22741C4F20201F9
:101C9000884241DCA021C4F2020188424FD0B82121
:101CA000C4F2020188424AD040F2104142E000BF33
:101CB00045F26B41C5F60201884200F3BB8045F254
:101CC0003041C5F60201884200F0C78045F2444128
:101CD000C5F60201884200F0C08045F25841B7E0E5
:101CE0005821C4F20201884229D07021C4F20201B5
:101CF000884224D088211DE040F2B841C4F202019C
:101D000088421CD045F20841C5F60201884200F025
:101D1000A48045F21C419BE040F22841C4F202013C
:101D200088420CD040F24041C4F20201884206D001
:101D300040F25841C4F20201884240F0238102215E
:101D400084F83510002184F83410016821F0010175
:101D5000016000BF20680168C9070DD000F038FDA0
:101D6000401B0628F6D320206065032084F8350048
:101D7000012001B0BDE8F08348F23F0204F10806FB
:101D80000168CFF610621140D4F818C06CCE114330
:101D90001943E3692943256A0E43616A33430429E1
:101DA00043EA050343EA0C0303D1D4E90B652E4350
:101DB0003343666843F48012A6F13F07A6F1290574
:101DC000042FA6F1470938BF1346062DA6F14F0E82
:101DD00038BF1346B9F1020F26F0030738BF134688
:101DE000BEF1040F38BF1346742F08BF13460429F1
:101DF0000360426922F0070241EA020140F0DE80FE
:101E0000D4E90A53002B41EA050100F0D780BCF564
:101E1000005F00F0B980BCF1000F40F0C180022DDE
:101E200000F0C180012D00F0B580002D00F0BB80D6
:101E3000C4E000BF45F26C41C5F6020188420CD0F7
:101E400045F28041C5F60201884206D045F2944130
:101E5000C5F60201884240F0958004F1080E022187
:101E600084F83510002184F834100168A3699EE8D5
:101E70000450A2F18005E769B5FA85F566696D0938
:101E8000402A4FEA853543EA07026FF3101142EA10
:101E9000060208BF102541EADC0142EA0E02236A6D
:101EA000294341EAD20141EA131140F80819C0B2AE
:101EB000CD2148433C2101EA9020E0652046FEF711
:101EC0004BFCE16D012201F01F0102FA01F14160BA
:101ED0002068404500F381809F21C4F202018842BE
:101EE00014DC5721C4F20201884227DC1021C4F21D
:101EF0000201884200F0C7802821C4F20201884212
:101F000000F0C1804021C4F20201B9E040F2274153
:101F1000C4F20201884221DCA021C4F202018842FD
:101F200000F0B180B821C4F20201884200F0AB8019
:101F300040F21041C4F20201A2E000BF5821C4F2F5
:101F40000201884200F09F807021C4F202018842A1
:101F500000F099808821C4F2020191E040F228410A
:101F6000C4F20201884200F08E8040F24041C4F287
:101F70000201884200F0878040F25841C4F2020119
:101F80007EE000BF4020EFE6032D17D8DFE805F024
:101F90000E0B0E02A3F1C072B2FA82F2520904E0F3
:101FA000032D03D30AD1C3F300623AB14020606528
:101FB000012084F8350001B0BDE8F083416120467E
:101FC000FEF7CAFBE16D3F2201F01F0102FA01F1A9
:101FD0008160206840457FF77FAF45F22F41C5F60D
:101FE0000201884216DC40F2B741C4F20201884285
:101FF00026DC40F27041C4F20201884243D040F234
:102000008841C4F2020188423DD040F2A041C4F2AE
:10201000020135E045F26B41C5F6020188421FDC42
:1020200045F23041C5F6020188422CD045F24441C8
:10203000C5F60201884226D045F258411EE000BF95
:1020400040F2B841C4F2020188421CD045F2084176
:10205000C5F60201884216D045F21C410EE000BFD1
:1020600045F26C41C5F6020188420CD045F294411C
:10207000C5F60201884206D045F28041C5F602014C
:10208000884240F0E18045F2574C45F6FC01C5F628
:10209000020CC5F6020160450EDC45F22F42C5F682
:1020A0000202904218DC45F20842C5F60202904254
:1020B00028D045F21C4221E045F27F42C5F60202DB
:1020C000904213DC45F25842C5F60202904219D004
:1020D00045F26C4212E000BF45F23042C5F6020202
:1020E00090420FD045F2444208E000BF45F29442CE
:1020F000C5F60202904205D045F28042C5F60202C2
:10210000904247D100F0FC024CF6CD43083ACCF6A1
:10211000CC43A2FB0323A1F1FC05A1F17C061B0922
:1021200005EB830503F01F02A3682566802B4FF0A3
:10213000010303FA02F26666A26605D10020606020
:10214000286072601EE000BF6768FBB2013F072F86
:102150002B60726016D85E1E082E19D2604501F100
:10216000440237DC45F22F47C5F60207B84241DC8E
:1021700045F20847C5F60207B84259D045F21C4758
:102180004AE000BF00206067C4E91B005CE000BFBC
:10219000E06E54E000F0F8024AF6AB23103ACAF6BB
:1021A000AA23A2FB032740F20F43C4F2020308252F
:1021B0003A09984203F1AA06134688BF05EB1713A4
:1021C00040F60005B042C4F2020505F1800628BFC2
:1021D0001346A5E745F27F47C5F60207B84213DC70
:1021E00045F25847C5F60207B84221D045F26C4780
:1021F00012E000BF45F23047C5F60207B84217D0DB
:1022000045F2444708E000BF45F28047C5F60207A3
:10221000B8420DD045F29447C5F60207B84207D040
:1022200040F60000C4F2020000F1FC0100F5A072CB
:1022300001EB83000121E066B14022676167002164
:102240000160D4E91C01416000206065012184F82F
:10225000351001B0BDE8F08340B1B0B5054690F847
:102260003400012804D10220B0BD00BF0120704716
:10227000012085F8340095F83500012828D1022086
:1022800085F83500002068652868046824F001049A
:1022900004602846FEF7F4FA40F20F422868C4F2C0
:1022A000020240F26F419042C4F2020118DC6F2337
:1022B000C4F20203984225DC3F23C4F20203984291
:1022C0003CDC1023C4F2020398425ED0282357E07E
:1022D0004FF400606865002085F834000120B0BD2F
:1022E00088421BDC40F23F43C4F2020398422DDCDB
:1022F00040F21043C4F20203984246D040F2284311
:102300003EE000BF9F23C4F20203984228DC702302
:10231000C4F20203984238D0882331E040F29F4350
:10232000C4F20203984223DC40F27043C4F2020379
:1023300098422AD040F2884322E000BF4023C4F2F2
:102340000203984221D058231AE000BF40F24043D4
:10235000C4F20203984218D040F2584310E000BF84
:10236000A023C4F2020398420FD0B82308E000BFB4
:1023700040F2B843C4F20203984206D040F2A043B0
:10238000C4F20203984240F02F8103680B2464F3E7
:10239000440303602B6C1BB10823046823430360D0
:1023A000884219DC9F23C4F20203984232DC57238F
:1023B000C4F20203984259DC1023C4F2020398428B
:1023C00000F096802823C4F20203984200F0908027
:1023D0004023C4F2020389E045F22F43C5F602030D
:1023E00098422DDC40F2B743C4F2020398424BDC22
:1023F00040F27043C4F20203984279D040F288431D
:10240000C4F20203984273D040F2A043C4F2020324
:102410006CE000BF40F22743C4F20203984243DC61
:10242000A023C4F20203984262D0B823C4F202038C
:1024300098425DD040F21043C4F2020356E000BF60
:1024400045F26B43C5F6020398423FDC45F2304348
:10245000C5F6020398424BD045F24443C5F6020349
:10246000984245D045F258433EE000BF5823C4F29D
:10247000020398423CD07023C4F20203984237D042
:102480008823C4F2020331E040F2B843C4F20203ED
:1024900098422DD045F20843C5F60203984227D052
:1024A00045F21C4320E000BF40F22843C4F202037F
:1024B00098421DD040F24043C4F20203984217D024
:1024C00040F25843C4F2020310E000BF45F26C43EF
:1024D000C5F6020398420BD045F29443C5F60203B9
:1024E000984205D045F28043C5F60203984274D164
:1024F0002B6E1C68E40303D51C6844F480741C60D4
:10250000EB6E1BB11D6845F480751D60904211DCB7
:102510006F21C4F2020188421EDC3F21C4F2020195
:10252000884235DC1021C4F20201884255D02821AE
:1025300050E000BF88421BDC40F23F41C4F2020180
:1025400088422DDC40F21041C4F20201884244D09E
:1025500040F228413EE000BF9F21C4F202018842C0
:1025600028DC7021C4F20201884236D0882131E093
:1025700040F29F41C4F20201884223DC40F27041E4
:10258000C4F20201884228D040F2884122E000BF14
:102590004021C4F2020188421FD058211AE000BF36
:1025A00040F24041C4F20201884216D040F2584144
:1025B00010E000BFA021C4F2020188420DD0B82172
:1025C00008E000BF40F2B841C4F20201884204D0E2
:1025D00040F2A041C4F202018842016841F00101C9
:1025E00001600020B0BD00BF0368052464F343030D
:1025F00003602B6C002B3FF4D3AE0423CDE6000028
:10260000B0B5044600F0E4F840F244010546C2F2D9
:102610000041621C097818BF0C4400BF00F0D8F8D4
:10262000401BA042FAD3B0BD2DE9F04F82B00D6837
:10263000002D00F0C78000F1264242F2004402F172
:10264000FF728305C5F602040A27A04243EA9222DC
:1026500008BF0927082A40F2040C38BF1746C5F600
:10266000000C4FF0000E0097002700260AE000BF84
:1026700001360D6835FA06F207F102070EF1040E75
:1026800000F0A080012202FA06FB15EA0B08EFD049
:10269000D1F804A003220AF0030502FA07F36C1E26
:1026A0006FEA0309012C0FD88368CC6803EA090399
:1026B000BC4023438360CAF30014436823EA0B033E
:1026C000B4402343436003E0032D01D1032520E000
:1026D000C3688C6803EA0903BC40022D43EA040383
:1026E000C36016D16FF003020EF01C0502EA560318
:1026F0000F22034402FA05FBD3F820A00C692AEA52
:102700000B0AAC4044EA0A041C62D1F804A00AF0A7
:102710000305036805FA07F403EA09031AF4403FC6
:1027200043EA04030360A3D044F2F44240F2084AAF
:10273000C5F60202C5F6000A136843F002031360EF
:1027400013680F2203F00203019326F00303019C98
:102750000EF00C0453F80A9002FA04F5009A29EAE4
:10276000050502FA04F44FF0B0492C4343F80A403F
:10277000D9F800304C6843EA0805E20258BF23EA62
:102780000805C9F80050A502DCF8002042EA080359
:1027900058BF22EA0803A503CCF80030DCF88020FB
:1027A00042EA080358BF22EA0803E403CCF8803069
:1027B000DCF87C2042EA080358BF22EA0803CCF880
:1027C0007C3055E702B0BDE8F08F0000000000004B
:1027D00040F6F410C2F200400068704700000000AC
:1027E00040F2440040F6F411C2F20040C2F200414F
:1027F00000780A681044086070470000000000007C
:1028000080B5032000F0FCF801F086F944F218418D
:1028100049F6B003C5F60201C0F600030A68C2F328
:1028200003229A5C096801F00F0102F01F02595C53
:10283000D04040F25002C2F2004201F01F0120FAE3
:1028400001F1116040F24C01C2F2004108600F201A
:1028500000F00AF800281CBF012080BD00F07CF8C1
:10286000002080BD0000000070B540F24406C2F2B6
:1028700000463178E1B1044640F24C00C2F200401B
:102880004FF47A72B2FBF1F10068B0FBF1F001F0A5
:10289000ABFC0F2C4FF0010508D838B94FF0FF30D2
:1028A00000222146002500F07BF87460284670BDA8
:1028B000012070BD0000000010B54EF6A05E41780A
:1028C000CEF2000E90F800C04EF8081CDEF80010A2
:1028D00021F00101CEF8001041684EF8041C017B84
:1028E000C37A827A447B1B0643EA0171837B41EA07
:1028F000C241C27B41EA8441447A41EA4341007AC1
:1029000041EA024141EA042141EA400040EA0C0068
:10291000CEF8000010BD00004EF62450CEF20000AC
:10292000BFF35F8F016821F48031016000210167EE
:1029300070470000000000004EF6245140F00100F6
:10294000CEF200010867086840F480300860BFF3E9
:102950004F8FBFF36F8F704781B044F2F440C5F6DC
:102960000200016841F002010160006800F002000D
:102970000090009801B07047002848BF704700F0F1
:102980001F01012202FA01F14EF20012C0F34A10B7
:10299000CEF2000242F82010704700000000000054
:1029A00070B54EF60C5C4FF0FF36CEF2000C00F125
:1029B000604505F56445DCF80030C3F3022E8EF067
:1029C0000703042B28BF0423BEF1030406FA03F314
:1029D00021EA030100F00F0338BF0024043B002864
:1029E000634406FA04F048BF03F10C05A14022EA53
:1029F000000008430001287070BD000000000000C6
:102A00004EF60C514FF6FF03CEF200010A681A4051
:102A100060F30A2242F0806040F0FD700860704769
:102A2000B0B544F60C05C5F60205296849072968C2
:102A300006D401F00701081A18BF0120B0BD00BF7D
:102A400021F0070108432860FFF7C2FE044600BFDB
:102A500055F8080C800407D4FFF7BAFE001BB0F548
:102A60007A7FF5D90120B0BD0020B0BD0000000084
:102A700080B500F0C9FF44F2204149F6B002C5F626
:102A80000201C0F600020968C1F30211515C01F0B5
:102A90001F01C84080BD000080B544F2384EC5F625
:102AA000020E5EF8103C5EF8101C5EF80C2CC1F3B0
:102AB000053CDEF80410BCF1000F15D0C908D206A1
:102AC00001EAE2716FF35F3100EE101A03F00301C7
:102AD0000229B8EE400A0DD081B95EF8381C89068B
:102AE00010D49FED361A1BE000218160C0E900116F
:102AF00080BD00BF9FED301A12E000BF9FED2D1A80
:102B00000EE000BF5EF8381C49F20002C0F2D0327D
:102B1000C1F3C10122FA01F101EE101AB8EE411A17
:102B2000DEF800109FED263A6FF35F2102EE101AD7
:102B3000DEF80010C1F34621B8EE422A00EE032A67
:102B400000EE10CAB7EE003AB8EE400A81EE000A75
:102B500032EE031A02EE101AB8EE422A20EE010AF3
:102B600032EE031A80EE011ABCEEC11A80ED001A93
:102B7000DEF80010C1F3064101EE101AB8EE411A5A
:102B800031EE031A80EE011ABCEEC11A80ED011A73
:102B9000DEF80010C1F3066101EE101AB8EE411A1A
:102BA00031EE031A80EE010ABCEEC00A10EE101AD4
:102BB000816080BD0024744A001BB74B0024744C14
:102BC000000000390000000080B544F2404EC5F618
:102BD000020E5EF8183C5EF8181C5EF8142CC1F367
:102BE000055CDEF80410BCF1000F15D0C908D20551
:102BF00001EAE2716FF35F3100EE101A03F0030196
:102C00000229B8EE400A0DD081B95EF8401C890651
:102C100010D49FED361A1BE000218160C0E900113D
:102C200080BD00BF9FED301A12E000BF9FED2D1A4E
:102C30000EE000BF5EF8401C49F20002C0F2D03244
:102C4000C1F3C10122FA01F101EE101AB8EE411AE6
:102C5000DEF800109FED263A6FF35F2102EE101AA6
:102C6000DEF80010C1F34621B8EE422A00EE032A36
:102C700000EE10CAB7EE003AB8EE400A81EE000A44
:102C800032EE031A02EE101AB8EE422A20EE010AC2
:102C900032EE031A80EE011ABCEEC11A80ED001A62
:102CA000DEF80010C1F3064101EE101AB8EE411A29
:102CB00031EE031A80EE011ABCEEC11A80ED011A42
:102CC000DEF80010C1F3066101EE101AB8EE411AE9
:102CD00031EE031A80EE010ABCEEC00A10EE101AA3
:102CE000816080BD0024744A001BB74B0024744CE3
:102CF00000000039000000002DE9F0470446C078CC
:102D000044F22C480007C5F6020833D5606E4FEA3E
:102D1000305103290CD8DFE801F003111D2600BF54
:102D2000D8F8001041F40031C8F800101BE000BFD3
:102D300001266078C0070BD020E000BF04F1080036
:102D4000022103F0C9F8064660B16078C00715D1CA
:102D5000354646E004F12800022103F051F9064609
:102D60000028F2D1606ED8F8241021F440110843F5
:102D7000C8F8240000266078C007E9D0A06D0428B8
:102D80000ED83546DFE800F00412181E1E0000BF02
:102D9000D8F80000354640F40030C8F8000011E0D3
:102DA00001250127607840071FD453E004F1080093
:102DB000002103F091F804E004F12800002103F061
:102DC0001FF905462F461DB1607840070DD441E03C
:102DD000D8F82400A16D20F0070000250843C8F8AA
:102DE000240037466078400734D5D4F8A4004FEA71
:102DF000705005280CD8DFE800F00311171D1D1DC9
:102E0000D8F8000040F40030C8F8000012E000BF1D
:102E1000012501266078000720D455E004F1080060
:102E2000002103F059F804E004F12800002103F028
:102E3000E7F805462E461DB1607800070ED443E042
:102E4000D8F82C00D4F8A41020F460000025084322
:102E5000C8F82C003E466078000735D5D4F8A800A5
:102E60004FEA306005280DD8DFE800F00412181E84
:102E70001E1E00BFD8F8000040F40030C8F8000063
:102E800012E000BF01250127E078800720D44EE042
:102E900004F10800002103F01FF804E004F1280009
:102EA000002103F0ADF805462F461DB1E0788007FC
:102EB0000ED43CE0D8F82C00D4F8A81020F0E06044
:102EC00000250843C8F82C003746E07880072ED547
:102ED000E06C4FEA301003280ED8DFE800F0090359
:102EE000130900BFD8F8000040F40030C8F8000013
:102EF0002E467DB912E000BF012501266078C0068C
:102F000019D44CE004F10800022102F0E5FF054667
:102F10002E461DB16078C0060DD440E0D8F82000E0
:102F2000E16C20F0300000250843C8F820003E4640
:102F30006078C00633D5E06D4FEA303004280DD8F4
:102F4000DFE800F00412181E1E0000BFD8F80000D1
:102F500040F40030C8F8000012E000BF012501274E
:102F6000607880061FD44EE004F10800002102F0D2
:102F7000B3FF04E004F12800002103F041F8054606
:102F80002F461DB1607880060DD43CE0D8F82400AF
:102F9000E16D20F4E04000250843C8F824003746DE
:102FA000607880062FD5206E4FEA3040052809D87A
:102FB000DFE800F0040E1404040400BF2E46ADB98F
:102FC00018E000BF01250126607840061FD44FE0BD
:102FD00004F10800012102F07FFF04E004F1280061
:102FE000012103F00DF805462E461DB1607840061C
:102FF0000DD43DE0D8F82400216E20F4E020002517
:103000000843C8F824003E466078400630D5D4F81E
:10301000AC004FEA3070052808D8DFE800F0030D57
:10302000130303032F46ADB918E000BF01250127A4
:103030006078000620D442E004F10800012102F08B
:103040004BFF04E004F12800012102F0D9FF0546FE
:103050002F461DB1607800060ED430E0D8F82C0061
:10306000D4F8AC1020F0E04000250843C8F82C004C
:1030700037466078000622D5E06E58B1B0F1005FA7
:103080000CD0B0F1805F2FD1D8F8000040F40030B0
:10309000C8F800002E469DB908E000BF04F1080002
:1030A000012102F019FF05462E464DB9D8F824003B
:1030B000E16E20F0405000250843C8F824003E4649
:1030C000E078C00733D0A06C032813D8DFE800F005
:1030D00008021A08D8F8000040F40030C8F80000D0
:1030E000A946BDB91AE000BF01250126E078C00756
:1030F000E9D11CE001254FF00109A07840061AD55E
:103100001CE000BF04F10800022102F0E5FE0546C4
:10311000A9461DB1A07840060DD50FE0D8F82000D3
:10312000A16C20F0030000250843C8F82000B14638
:10313000A078400602D44F4618E000BFD8F8D40368
:1031400040F48070C8F8D403FFF742FB064600BF86
:10315000D8F8D403C00507D4FFF73AFB801B6428D6
:10316000F6D90325032701E02F468DB12078C0074B
:1031700061D0A06F4FEAF00005283BD8DFE800F0EF
:1031800004404604040400BF002D2E4646D149E009
:10319000D8F84410D4F8B000414011F4407F11D069
:1031A000D8F84410D8F8442042F48032C8F84420BB
:1031B000D8F8442021F4407122F48032C8F8442029
:1031C000C8F84410B0F5807F40F0CE82FFF700FBD6
:1031D000064641F2883A0325032700BFD8F8440089
:1031E000800700F1BF82FFF7F3FA801B5045F5D945
:1031F000BCE700BF01250126207880071FD44CE0E2
:1032000004F10800012102F067FE04E004F1280047
:10321000012102F0F5FE05462E461DB120788007FB
:103220000DD43AE0D8F82800A16F20F0380000252E
:103230000843C8F828003E46207880072DD5606FE7
:10324000052809D8DFE800F0040E1404040400BFC8
:103250002F46ADB918E000BF0125012720784007AF
:103260001FD44DE004F10800012102F035FE04E016
:1032700004F12800012102F0C3FE05462F461DB1CE
:10328000207840070DD43BE0D8F82800616F20F08B
:10329000070000250843C8F8280037462078400773
:1032A0002ED5D4F89000052808D8DFE800F0030DEB
:1032B000130303032E46ADB918E000BF0125012614
:1032C0002078800620D451E004F10800012102F0AA
:1032D00003FE04E004F12800012102F091FE0546FE
:1032E0002E461DB1207880060ED43FE0D8F82C0081
:1032F000D4F8901020F0070000250843C8F82C00EF
:103300003E462078800631D5D4F88C004FEA3070E4
:10331000052809D8DFE800F0040E1404040400BFF7
:103320002F46ADB918E000BF0125012720784006DF
:1033300020D451E004F10800002102F0CDFD04E0AA
:1033400004F12800022102F05BFE05462F461DB164
:10335000207840060ED43FE0D8F82800D4F88C102E
:1033600020F0E04000250843C8F8280037462078C0
:10337000400631D5D4F898004FEAB020052809D886
:10338000DFE800F0040E1404040400BF2E46ADB9BB
:1033900018E000BF012501262078000620D454E063
:1033A00004F10800002102F097FD04E004F1280078
:1033B000022102F025FE05462E461DB120780006AA
:1033C0000ED442E0D8F82C00D4F8981020F4E05045
:1033D00000250843C8F82C003E462078000634D566
:1033E000D4F89C004FEA703005280FD8DFE800F0D1
:1033F00004141A04040400BF2F46E5B12068010735
:1034000027D4C1063ED4000355D475E00125012719
:1034100020680107F5D51CE004F10800002102F046
:103420005BFD04E004F12800022102F0E9FD0546FD
:10343000002D2F46E2D1D8F82C00D4F89C1020F4AF
:10344000604000250843C8F82C0037462068010773
:10345000D7D5D4F88000B0F5805F09D104F12800F9
:10346000022102F0CDFD002818BF0127D4F880000A
:10347000D8F8281021F440510843C8F828002068E3
:10348000C106C0D5D4F89400B0F5807F09D104F10D
:103490002800022102F0B4FD002818BF0127D4F84B
:1034A0009400D8F82C1021F440710843C8F82C007F
:1034B0002068000320D5D4F8A000B0F5003F0FD05D
:1034C000B0F5803F06D078BB04F10800002102F07F
:1034D00003FD04E004F12800022102F091FD0546FD
:1034E0002E4655B9D8F82C00D4F8A01020F440305E
:1034F00000250843C8F82C003E46A07840072BD58D
:10350000D4F88400B0F5401F0BD0B0F5001F11D0E7
:10351000B0F5801F2AD1D8F8000040F40030C8F878
:1035200000002F46CDB90DE001250126A078400707
:10353000E6D411E004F12800012102F061FD054606
:103540002F4655B9D8F82800D4F8841020F440103C
:1035500000250843C8F828003746A078C0070AD1DC
:103560003E462168880016D533E000BF01250127BB
:10357000A078C007F4D0206DB0F5803F10D018BB04
:10358000D8F8000040F40030C8F800002E4685B19D
:10359000216888001DD460688A0326D465E000BFD6
:1035A00004F10800022102F097FC0546002D2E468A
:1035B000EED1D8F82000216D20F48030002508439A
:1035C000C8F82000CCE700BF01250126216888004B
:1035D000E1D504F12800022102F012FD002818BFF5
:1035E0000126D4E900108A033FD5E26F6FF0010392
:1035F00003EB3223022B0BD34FEA322343B1012BCF
:1036000040F0AA80D8F8003043F40033C8F8003006
:1036100025B3CA022CD48A0234D44A003CD4CA0F3F
:1036200049D1090251D4C1075AD1810763D4410756
:103630006CD4010776D4C10600F18080800607D5DE
:1036400004F12800022102F0DBFC002818BF01254C
:10365000002D18BF01252846BDE8F087D8F828308E
:1036600023F440731A43C8F828203546CA02D2D53D
:10367000D8F82420236F22F000421A43C8F82420EF
:103680008A02CAD5D8F82420A36E22F080721A4389
:10369000C8F824204A00C2D558F81C2C22F4004255
:1036A00048F81C2CD4F8B42058F81C3C1A4348F8AD
:1036B0001C2CCA0FB5D0D8F82020636D22F04052E0
:1036C0001A43C8F820200902ADD5D8F82810D4F83C
:1036D000882021F440011143C8F82810C107A4D064
:1036E00004F10800002102F0F7FB002818BF05468E
:1036F000606881079BD504F10800012102F0ECFB12
:10370000002818BF05466068410792D504F10800FB
:10371000022102F0E1FB002818BF0546606801079E
:103720007FF589AF04F12800002102F069FC002830
:1037300018BF05466068C1067FF580AF04F1280018
:10374000012102F05DFC002818BF05466068800674
:103750003FF576AF7CE700BF0125CA027FF55BAF7E
:1037600086E700BFD4F8B0004FF6CF7358F81C2C92
:10377000C0F2FF0300F4407122F47C5203EA1013FC
:103780006FF31F30B1F5407F08BF1A43002548F89A
:103790001C2CD8F844100843C8F84400FFF7CBBCF1
:1037A0002DE9F04381B0002800F02A8142F20008A0
:1037B0000446C5F200288946D8F8000000F00F0042
:1037C00088420ED2D8F8000020F00F0040EA09002D
:1037D000C8F80000D8F8000000F00F00484540F09D
:1037E0000F81206844F218474107C5F602070AD541
:1037F00021693A6802F07002914204D93A6822F0D5
:1038000070021143396001070AD561697A6802F0D4
:103810007002914204D97A6822F0700211437960F3
:10382000C1060AD5A1697A6802F4E062914204D91E
:103830007A6822F4E0621143796081060AD5E16971
:10384000BA6802F07002914204D9BA6822F070029C
:103850001143B96010F002010AD0E2683B6803F03E
:103860000F039A4204D93B6823F00F031A433A60CE
:10387000C20746D03968D4E9010221F470610128F9
:1038800041EA0201396009D003280DD0022811D184
:1038900057F8181C890312D4B2E000BF57F8181C5F
:1038A000C9050CD4ACE000BF57F8181C890106D438
:1038B000A6E000BF57F8181C490740F1A18057F84F
:1038C000081C21F00701084347F8080CFEF780FFA9
:1038D000064641F2883500BF57F8080C616800F0D1
:1038E0003800B0EBC10F09D0FEF772FF801BA84271
:1038F000F2D9032001B0BDE8F08300BF206800F0DA
:10390000020151B1E1683A6802F00F02914204D21B
:103910003A6822F00F0211433960D8F8001001F024
:103920000F0149450DD9D8F8001021F00F0141EAE7
:103930000901C8F80010D8F8001001F00F0149453E
:103940005ED141070AD521693A6802F070029142BE
:1039500004D23A6822F070021143396001070AD597
:1039600061697A6802F07002914204D27A6822F0AA
:10397000700211437960C1060AD5A1697A6802F420
:10398000E062914204D27A6822F4E06211437960E5
:1039900080060AD5E069B96801F07001884204D256
:1039A000B96821F070010843B86000F0B5F83968D3
:1039B00049F6B002C0F60002C1F30321515C3B6836
:1039C00003F00F0301F01F01D25C20FA01F102F0B5
:1039D0001F0040F25002C2F2004221FA00F01060D3
:1039E00040F2480040F24C02C2F20040C2F20042F3
:1039F0000068116001B0BDE8F043FEF735BF00BFBD
:103A0000012001B0BDE8F08380B500F085F844F2F4
:103A1000184149F6B003C5F60201C0F600030A6872
:103A2000C2F303229A5C096801F00F0102F01F0241
:103A3000595C20FA02F201F01F0040F25001C2F27C
:103A4000004122FA00F0086040F24C01C2F200414D
:103A50000A6080BD0000000080B500F05DF844F20F
:103A6000184C49F6B003C5F6020CC0F60003DCF8AA
:103A70000020C2F303229A5CDCF8001001F00F0171
:103A800002F01F02595CD04040F25002C2F20042E4
:103A900001F01F0120FA01F1116040F24C02C2F264
:103AA00000421060DCF80400C0F30210185C00F063
:103AB0001F0021FA00F080BD80B500F02DF844F21F
:103AC000184C49F6B003C5F6020CC0F60003DCF84A
:103AD0000020C2F303229A5CDCF8001001F00F0111
:103AE00002F01F02595CD04040F25002C2F2004284
:103AF00001F01F0120FA01F1116040F24C02C2F204
:103B000000421060DCF80400C0F30220185C00F0F2
:103B10001F0021FA00F080BD44F20041C5F6020109
:103B20000869C0F3C200032810D002282ED098BB29
:103B30000868800649F20000C0F2D03058BF7047D4
:103B40000968C1F3C101C840704700BF8A6A886A2A
:103B5000C0F3051CC86ABCF1000F4B6B22D000F00B
:103B6000010002F003024042022A00EAD3006FF390
:103B70005F3000EE100AB8EE400A15D0C2B90868EE
:103B8000800619D49FED281A23E000BF43F200609D
:103B9000C0F26E10704700BF40F60010C0F23D004A
:103BA000704700BF002070479FED1E1A11E000BF54
:103BB0009FED1B1A0DE000BF086849F20002C0F239
:103BC000D032C0F3C10022FA00F001EE100AB8EEC4
:103BD000411A086B9FED153A6FF35F2002EE100A51
:103BE000086BC0F34620B8EE422A013000EE032AEB
:103BF00000EE10CAB7EE003AB8EE400A81EE000AB5
:103C000032EE031A20EE010A01EE100AB8EE411A54
:103C100080EE010ABCEEC00A10EE100A704700BF29
:103C20000024744A001BB74B0024744C0000003978
:103C300070B3F0B581B00446007844F20046C00786
:103C4000C5F6020626D1207880076ED5306910F0BF
:103C50003801B06A46D0182908BF5FEA807041D0A9
:103C6000E0683168002800F0318121F01901084333
:103C70003060FEF7ADFD0546306840074ED4FEF7D4
:103C8000A7FD401B0228F7D9032001B0F0BD00BFFB
:103C900001207047306900F03801B06A102905D062
:103CA00018290BD100F00300022807D130688003E7
:103CB000C9D560680028C6D1AEE000BF60680028A2
:103CC00000F03A81B0F5A02F00F04E81B0F5803FB2
:103CD00000F04E81306820F480303060306820F48D
:103CE000802048E130684007E06802D5002800F0F5
:103CF0009380316821F0190108433060FEF768FDB8
:103D0000054600BF3068400708D4FEF761FD401B40
:103D100002284FF00300F5D901B0F0BD70682169A9
:103D200020F0FE4040EA016070602078C0061AD59D
:103D3000306900F03801B06A082907D0182940F02E
:103D4000858000F00300012840F080803068C005C5
:103D500002D5E06980285FD1F068216A20F07C50AC
:103D600040EA0160F060207800073FD420788006A8
:103D700056D42078400700F18180656A9DB3306990
:103D800000F03800182840F01981012DB16A306B1D
:103D900042D001F00302A36A9A423DD1C1F305115A
:103DA000E26A914238D10146226B6FF35F21013AFA
:103DB000914231D1C0F34622616B01398A422BD145
:103DC000C0F30642A16B01398A4225D1C0F30660D7
:103DD000E16B013988421FD1706BA16CC0F3CC003C
:103DE000814240F0A181002001B0F0BD606900284F
:103DF000706F59D040F001007067FEF7E9FC05468E
:103E0000706F8007B2D4FEF7E3FC401B0228F7D99D
:103E1000032001B0F0BD00BF012001B0F0BD00BF24
:103E2000A0690028306875D040F480503060FEF7FB
:103E3000CFFC0546306880049BD4FEF7C9FC401BCC
:103E40000228F7D9032001B0F0BD00BFE0690028C7
:103E5000306800F0A18040F080003060FEF7B8FCD0
:103E6000054600BF3068C0053FF576AFFEF7B0FCF1
:103E7000401B02284FF00300F4D94DE7D6F80004A8
:103E800040F48070C6F80004FEF7A2FC054600BFAF
:103E9000D6F80004C0052BD4FEF79AFC401B64281A
:103EA000F6D9032001B0F0BD20F001007067FEF7E5
:103EB0008FFC0546706F80077FF558AFFEF788FCD2
:103EC000401B02284FF00300F4D925E721F0010040
:103ED0003060FEF77DFC0546306840077FF525AF72
:103EE000FEF776FC401B02284FF00300F4D913E7DD
:103EF000A068002800F08480052800F09B8001283D
:103F000000F09C80306F20F001003067306F20F0AF
:103F1000040096E020F480503060FEF759FC05461E
:103F2000306880047FF525AFFEF752FC401B022865
:103F30004FF00300F4D9EFE6306820F480303060B1
:103F4000306820F480203060FEF742FC054600BF58
:103F5000306880037FF577AEFEF73AFC401B64289B
:103F60004FF00300F4D9D7E6306840F48020306089
:103F7000306840F480303060FEF72AFC054600BF10
:103F8000306880033FF55FAEFEF722FC401B6428DB
:103F9000F6D9032001B0F0BD20F080003060FEF7BC
:103FA00017FC05463068C0057FF5DDAEFEF710FC56
:103FB000401B02284FF00300F4D9ADE6306820F032
:103FC00080703060FEF704FC022D05460CD100BF66
:103FD0003068800148D5FEF7FBFB401B02284FF0FC
:103FE0000300F5D998E600BF306880017FF5FBAE8D
:103FF000FEF7EEFB401B02284FF00300F4D98BE6DE
:10400000306F20F001003067306F20F0040030671F
:10401000FEF7DEFB054641F28837306F80077FF5FB
:10402000ACAEFEF7D5FB401BB8424FF00300F4D90D
:1040300072E600BF306F40F004003067306F40F030
:1040400001003067FEF7C4FB054641F2883700BF28
:10405000306F80073FF591AEFEF7BAFB401BB842C8
:104060004FF00300F4D957E604F12807B06A40F294
:10407000F33188438ECF0843591E40EA02104FF4B3
:104080007E426FF35F21B06202EB47204FF4FE02E5
:1040900080B2E36B0844A16B02EB01414FF0FE429A
:1040A00001F4FE0102EB0362084402F0FE41084401
:1040B0003063F06A4FF6F87120F00100F062706B27
:1040C000A26C884340EAC2007063F06A216C20F061
:1040D0000C000843F062F06A616C20F002000843B3
:1040E000F062F06A40F48030F062F06A40F4003030
:1040F000F062F06A40F48020F062F06A40F0010063
:10410000F062306840F080703060FEF761FB04467A
:10411000306880013FF567AEFEF75AFB001B0228AE
:104120004FF00300F4D9F7E5F06A20F00100F062E7
:10413000FEF74EFB0546FEF74BFBA842FBD0706B2B
:104140004FF6F871A26C884340EAC2007063F06ACF
:1041500040F00100F062002001B0F0BD000000005E
:10416000F0B581B0F8B10446D0F888001E46154677
:104170000F4628B9002084F88400204601F0A4FAF4
:104180002420C4F888002068A16A0268002922F06F
:104190000101016002D0204602F05EFB204603F0E0
:1041A000C3FB012802D1012001B0F0BD2068816865
:1041B00041F480418160816821F40041394381608C
:1041C0003104026841EA45516FF31942114301601D
:1041D000016841F001010160204601B0BDE8F040F6
:1041E00002F0AABB00000000411E0020B0EB116FDE
:1041F00002D00120704700BF4EF21002F023CEF231
:10420000000251604EF62351CEF200010B700721DF
:1042100090601160704700007047000000000000CF
:104220007047000000000000704700000000000020
:1042300090F83C20012A4FF0020266D0B0B580F819
:104240003D2040F2004C0268C4F2010C42F480634D
:1042500063455368D2F808E002BF23F470034C684A
:1042600023434DF6FF740D68C4F2000423F070037D
:10427000A24243EA0503536014DC40F2FF73C4F228
:1042800000039A4222DD40F60003C4F200039A4282
:104290002ED040F60043C4F200039A4228D041F6E3
:1042A000000321E04FF6FF73C4F200039A4213DDCE
:1042B0000023C4F201039A421AD044F20003C4F26C
:1042C00001039A4214D0624512D016E0B2F1804F39
:1042D0000ED040F2004307E04EF20003C4F20003A8
:1042E0009A4205D04EF20043C4F200039A4204D130
:1042F0002EF080038968194391600022012180F823
:104300003D1080F83C20BDE8B040104670470000EA
:1043100060B310B5044690F83D0028B9002084F839
:104320003C00204600F024F8022084F83D0020687C
:10433000211D02F0C1F9012084F8480084F83E00F4
:1043400084F83F0084F8400084F8410084F842007B
:1043500084F8430084F8440084F8450084F846005B
:1043600084F8470084F83D00002010BD012070470C
:1043700000210068C4F20101884218BF704780B56F
:1043800082B044F2F0400022C5F60200016841F01C
:10439000010101600068012100F001000190019815
:1043A0001920FEF7FDFA192002B0BDE88040FEF7A3
:1043B000E3BA00000000000090F83D10012927D169
:1043C000022180F83D1001684DF6FF70C4F2000034
:1043D0008142C86840F00100C8601BDC40F2FF70F9
:1043E000C4F2000081422DDD40F60000C4F200005E
:1043F00081423DD040F60040C4F20000814237D0F7
:1044000041F60000C4F20000814231D03CE000BF20
:10441000012070474FF6FF70C4F2000081421BDD9F
:104420000020C4F20100814222D044F20000C4F214
:10443000010081421CD040F20040C4F201008142E0
:1044400016D021E0B1F1804F12D040F20040C4F20A
:10445000000081420CD017E04EF20000C4F20000D0
:10446000814205D04EF20040C4F2000081420BD1DF
:1044700007228868C0F2010202400020062A18BF05
:10448000B2F5803F00D17047086840F00100086035
:10449000002070470000000090F83C20012A4FF0F7
:1044A000020200F0AA8080B580F83D208822D0F872
:1044B00000C0CFF6CE72DCF808301A40CCF80820E5
:1044C0000B686F2B0EDDB3F1101F37DAB3F5005F09
:1044D00046DA702B00F09480B3F5805F00F08480A2
:1044E000D8E000BF2F2B33DD4F2B3FDC302B6FD0BC
:1044F000402B40F0CF80D1F804E0C968DCF82030D0
:10450000DCF8202022F00102CCF82020DCF8182072
:1045100022F0F00242EA011123F00A02CCF818104E
:1045200042EA0E01CCF820104FF68872DCF8081031
:10453000CFF6CF721140473154E000BF2F21C0F2B7
:1045400010018B423ADCB3F1101F41D020213BE037
:10455000002B18BF102B3BD0202B39D09AE000BF86
:1045600062D0B3F5801F33D094E000BF502B6FD0E2
:10457000602B40F08F80D1F804E0C968DCF820306F
:10458000DCF8202022F01002CCF82020DCF81820E3
:1045900022F4704242EA013123F0A002CCF8181054
:1045A00042EA0E11CCF820104FF68872DCF80810A1
:1045B000CFF6CF721140673114E000BF3021C0F256
:1045C00010018B4204D04021C0F210018B4261D116
:1045D0004FF68872DCF80810CFF6CF7211401943FD
:1045E00041F00701CCF808100022012180F83D10AD
:1045F000002180F83C10BDE880401046704700BFA5
:10460000D1E901E3C968DCF8082043EA0E0322F48B
:104610007F4243EA01211143CCF80810DCF808106E
:1046200041F07701DEE700BFD1E901E3C968DCF8BA
:10463000082043EA0E0322F47F4243EA012111439A
:10464000CCF80810DCF8081041F48041CAE700BF3C
:10465000D1F804E0C968DCF82030DCF8202022F032
:104660000102CCF82020DCF8182022F0F00242EA07
:10467000011123F00A02CCF8181042EA0E01CCF81E
:1046800020104FF68872DCF80810CFF6CF72114078
:104690005731A7E70122A8E770470000000000009B
:1046A000F0B581B004460068C5680669B10717D542
:1046B00015F0020114D06FF0020101610121217790
:1046C0008069800704D02046FFF7E6FF06E000BFC0
:1046D000204600F09DF8204600F09EF8002020774C
:1046E000700719D515F0040016D020686FF004018A
:1046F000016102212177806910F4407F04D02046B7
:10470000FFF7CAFF06E000BF204600F081F8204610
:1047100000F082F800202077300717D515F0080048
:1047200014D020686FF00801016104212177C0696D
:10473000800703D02046FFF7AFFF05E0204600F0DA
:1047400067F8204600F068F800202077F00619D5B9
:1047500015F0100016D020686FF0100101610821DB
:104760002177C06910F4407F04D02046FFF794FF02
:1047700006E000BF204600F04BF8204600F04CF861
:1047800000202077F00718BF15F0010006D0206840
:104790006FF001010161204600F042F805F080074A
:1047A00016F4025F18BF002F02D1F00509D410E003
:1047B00020686FF4025101612046FFF731FDF005DA
:1047C00007D537B120686FF4807101612046FFF78B
:1047D00023FD700609D515F0400006D020686FF063
:1047E00040010161204600F08BF9B0060CD515F0B0
:1047F000200009D020686FF020010161204601B03F
:10480000BDE8F040FFF710BD01B0F0BD00000000B2
:10481000704700000000000070470000000000002A
:104820002DE9F04F81B02DED028B00210068C4F21C
:104830000101884204D0BDEC028B01B0BDE8F08FCD
:1048400040F20814C2F20044A0880130A08081B276
:10485000B1F57A7F03D3A0690021C4E9050160782E
:1048600040F2B418C2F2004870B16088C1087C29D7
:104870000CD8411CA0F2E730B0FA80F06180410909
:10488000207831B93EE000BF20783BE0012120785C
:10489000C1B3B8BB40F22C410120C2F200412080DC
:1048A0004869606240F2684040F2A441C2F20040B0
:1048B000C2F20041406960634869606440F2E040D0
:1048C00040F21C51C2F20040C2F2004140696065F2
:1048D0004869606640F2585040F29451C2F200407C
:1048E000C2F200414069C8F800004869C8F81000E9
:1048F00040F2D050C2F200404069C8F820000020C9
:10490000A06001E0002896D040F2A00094ED021AC9
:10491000C2F2004090ED000A30EE010A98ED0F1A45
:1049200084ED020AB4EE410AF1EE10FA03DD30EE36
:10493000410A84ED020A08F1300B04F11C0604F16F
:104940002007584631463A4603F0AEFF04F10C0901
:1049500004F1100A94ED070AD4ED080A0122484632
:10496000514603F015FF94ED040A9FED638A38EE7B
:10497000400A04F1240004F0AFFA94ED041A40F266
:10498000CC2038EE411AC2F2004040F20C2580EDF6
:10499000030AC2F20045B0EE410A294601F070FA5E
:1049A00094ED030A04F1340004F096FA40F2F82082
:1049B00005F11801C2F2004080ED030A94ED030AEC
:1049C00001F05EFA94ED040A04F1640004F084FA44
:1049D00040F27C3005F16001C2F2004080ED030A34
:1049E00094ED040A01F04CFA94ED030A404638EEC7
:1049F000400A04F071FA94ED031A40F2A83038EE40
:104A0000411AC2F2004005F1780180ED030AB0EED0
:104A1000410A01F035FAB6EE001A94ED020A98ED5B
:104A20000F2A584631463A4602EE010A03F03CFF8F
:104A300094ED070AD4ED080A01224846514603F0D6
:104A4000A7FE94ED040A04F1440004F045FA40F294
:104A5000243005F13001C2F2004080ED030A94EDEC
:104A6000040A01F00DFA94ED040A08F1200038EE72
:104A7000400A04F031FA94ED041A40F2004038EE96
:104A8000411AC2F2004005F1A80180ED030AB0EE20
:104A9000410A01F0F5F994ED030A04F1540038EEEF
:104AA000400A04F019FA94ED031A40F2503038EE3F
:104AB000411AC2F2004005F1480180ED030AB0EE50
:104AC000410A01F0DDF994ED030A08F1100004F049
:104AD00003FA40F2D43094ED031AC2F2004005F11B
:104AE000900180ED030AB0EE410ABDEC028B01B0EB
:104AF000BDE8F04F01F0C4B9DA0F494000000000F2
:104B0000704700000000000090F88410012901D1D6
:104B1000022070472421C0F88810026813681168C9
:104B200023F0005321F00101116000214166136060
:104B30002022C0F8882080F88410084670470000C2
:104B400010B50446D0F88C00202805D1012000299A
:104B500018BF002A02D110BD022010BDE06600205F
:104B60002067204603F030F9002818BF10BDE06E22
:104B700001282DD1206810210162206850E8000F23
:104B8000216840F0100041E800021AB3206850E8A4
:104B9000000F216840F0100041E80002002A1FBF0A
:104BA000206850E8000F216840F010001CBF41E869
:104BB0000002002A0ED0206850E8000F216840F063
:104BC000100041E800020020002AD6D1C3E700BF50
:104BD000012010BD002010BD44F60003024600680D
:104BE000C4F2000398420B4606D044F20041C4F2DE
:104BF0000001884218BF704740F2B4101146C2F25B
:104C000000401A46403001F08FBA0000000000005A
:104C1000704700000000000090F88420012A01D1B4
:104C20000220704770B52422C0F888200268D0F8AE
:104C300064E0BEF1000FD2F800C0136823F0010356
:104C40001360936823F0606341EA0301916019D017
:104C5000916849F6D82E9368C0F6000E5B0F49F6AE
:104C6000E025C1F34266C0F600051EF80340E95C8A
:104C70002301B3FBF1F11EF80630AE5D1B01B3FB5F
:104C8000F6F301E001210123A0F86A102021A0F829
:104C90006830C2F800C0C0F88810002180F8841085
:104CA000BDE870400846704790F88420012A01D181
:104CB0000220704770B52422C0F888200268D0F81E
:104CC00064E0BEF1000FD2F800C0136823F00103C6
:104CD0001360936823F0604341EA0301916019D0A7
:104CE000916849F6D82E9368C0F6000E5B0F49F61E
:104CF000E025C1F34266C0F600051EF80340E95CFA
:104D00002301B3FBF1F11EF80630AE5D1B01B3FBCE
:104D1000F6F301E001210123A0F86A102021A0F898
:104D20006830C2F800C0C0F88810002180F88410F4
:104D3000BDE8704008467047704700000000000062
:104D4000704700000000000010B50446206850E8DD
:104D5000000F216820F4907041E80002F2B1206851
:104D600050E8000F216820F4907041E80002002A0A
:104D70001FBF206850E8000F216820F490701CBF0E
:104D800041E80002002A09D0206850E8000F21689D
:104D900020F4907041E80002002AD7D14FF6FE704F
:104DA000CEF6FF70216851E8021F2268014042E8F8
:104DB0000213DBB1216851E8021F2268014042E87A
:104DC0000213002B1FBF216851E8021F2268014017
:104DD0001CBF42E80213002B08D0216851E8021FD3
:104DE0002268014042E80213002BDBD1E06E01286B
:104DF00027D1206850E8000F216820F0100041E81A
:104E00000002F2B1206850E8000F216820F0100085
:104E100041E80002002A1FBF206850E8000F216807
:104E200020F010001CBF41E80002002A09D02068D1
:104E300050E8000F216820F0100041E80002002A2D
:104E4000D7D12068806840063AD5206850E8020F24
:104E5000216820F0400041E80202F2B1206850E8E9
:104E6000020F216820F0400041E80202002A1FBF23
:104E7000206850E8020F216820F040001CBF41E884
:104E80000202002A09D0206850E8020F216820F0B1
:104E9000400041E80202002AD7D1D4F8800078B15E
:104EA00000210165FBF7A8FE50B1D4F88000FCF7A3
:104EB00097FA202804D11020C4F89000032010BDD8
:104EC0000020A4F85E0021680F220A628A6942F07D
:104ED00008028A612021C4F88C10E06610BD000031
:104EE000704700000000000070B50446006840F6FE
:104EF0002F01C26911402029016886680CD101F098
:104F0000200306F080555B1918D0616F71B32046FD
:104F1000BDE87040084700BF40F60F031A420DD0AD
:104F2000012340F22015C1F20003C0F2004506EA59
:104F3000030C01EA050313EB0C0327D1D306E36E40
:104F400016D5012B14D111F0100311D010210162DC
:104F50008068400626D4B4F85C00B4F85E10B4F85B
:104F60005E20002A18BF884240F0C68170BD00BF95
:104F7000D30235D516F4800332D04FF4801101628C
:104F80002046BDE87040FFF7DBBE00BFD30718BF67
:104F900011F4807340F08880930706F0010E00F151
:104FA0008F8098E0D4F8800040F20F42C4F20202F1
:104FB0000168914254DC6F22C4F20202914200F374
:104FC0001D823F22C4F20202914200F34B82102262
:104FD000C4F20202914200F06A82282264E200BF19
:104FE000100606D501F0800006F40003C01840F05A
:104FF000118250064CD511F0400049D0206850E88D
:10500000000F216820F0400041E80002F2B1206862
:1050100050E8000F216820F0400041E80002002A1B
:105020001FBF206850E8000F216820F040001CBF1F
:1050300041E80002002A09D0206850E8000F2168EA
:1050400020F0400041E80002002AD7D12020C4F817
:1050500088000020A0672046BDE8704000F074BDC5
:1050600040F26F42C4F20202914200F3D98140F251
:105070003F42C4F20202914200F3FC8140F210422E
:10508000C4F20202914200F0128240F228420BE286
:10509000100240F1DB8111F0804000F0D781204602
:1050A000BDE87040FFF748BE01230362D4F890309A
:1050B00043F00103C4F89030930706F0010E0AD5BF
:1050C000BEF1000F07D002230362D4F8903043F002
:1050D0000403C4F8903053070AD5BEF1000F07D07F
:1050E00004230362D4F8903043F00203C4F89030F4
:1050F00013070CD501F0200353EA0C0307D0082353
:105100000362D4F8903043F00803C4F890301305DC
:105110000BD511F0806308D04FF400630362D4F81C
:10512000903043F02003C4F89030D4F89030002B36
:105130003FF41CAF92060AD501F0200106F0805220
:10514000891804D0616F11B1204688472068D4F8CF
:105150009010806800F0400001F02801401807D14D
:105160002046FFF7BDFE0020C4F8900070BD00BFD0
:10517000206850E8000F216820F4907041E8000298
:10518000F2B1206850E8000F216820F4907041E8E7
:105190000002002A1FBF206850E8000F216820F499
:1051A00090701CBF41E80002002A09D0206850E836
:1051B000000F216820F4907041E80002002AD7D146
:1051C0004FF6FE70CEF6FF70216851E8021F22688C
:1051D000014042E80213DBB1216851E8021F226856
:1051E000014042E80213002B1FBF216851E8021F53
:1051F000226801401CBF42E80213002B08D021683E
:1052000051E8021F2268014042E80213002BDBD163
:10521000E06E012827D1206850E8000F216820F0B7
:10522000100041E80002F2B1206850E8000F216848
:1052300020F0100041E80002002A1FBF206850E85B
:10524000000F216820F010001CBF41E80002002A76
:1052500009D0206850E8000F216820F0100041E8D4
:105260000002002AD7D12020C4F88C000020E0667C
:10527000216860678868400640F1E280206850E855
:10528000020F216820F0400041E80202F2B12068DC
:1052900050E8020F216820F0400041E80202002A95
:1052A0001FBF206850E8020F216820F040001CBF9B
:1052B00041E80202002A09D0206850E8020F216864
:1052C00020F0400041E80202002AD7D1D4F8800043
:1052D000002800F0B58046F6B121C0F60001016556
:1052E000FBF722FF00283FF441AED4F88000016DA7
:1052F000BDE87040084700BF401A216851E8001F10
:10530000226821F4907142E80013F3B1216851E85A
:10531000001F226821F4907142E80013002B1FBF88
:10532000216851E8001F226821F490711CBF42E8F7
:105330000013002B09D0216851E8001F226821F4D6
:10534000907142E80013002BD7D14FF6FE71CEF6D4
:10535000FF71226852E8022F23680A4043E80226C0
:10536000DEB1226852E8022F23680A4043E8022691
:10537000002E1FBF226852E8022F23680A401CBF7C
:1053800043E80226002E08D0226852E8022F236844
:105390000A4043E80226002EDBD12021C4F88C10FD
:1053A0000021E1666167216851E8001F226821F051
:1053B000100142E80013F3B1216851E8001F226890
:1053C00021F0100142E80013002B1FBF216851E8B3
:1053D000001F226821F010011CBF42E80013002BBF
:1053E00009D0216851E8001F226821F0100142E82D
:1053F0000013002BD7D181B228E100BF9F22C4F255
:105400000202914240DC7022C4F2020291424ED06C
:10541000882249E0A16F00297FF479ADA6E500BF9D
:1054200040F29F42C4F20202914235DC40F27042E7
:10543000C4F2020291423AD040F2884234E000BF06
:105440002046BDE87040FFF74BBD00BFD0017FF59F
:105450008DADB1F1FF3FC8BF70BD2046BDE87040C3
:10546000FFF7D6BB4022C4F2020291421FD058225D
:105470001AE000BF40F24042C4F20202914216D04C
:1054800040F2584210E000BFA022C4F20202914252
:105490000DD0B82208E000BF40F2B842C4F20202C8
:1054A000914204D040F2A042C4F2020291424A6802
:1054B000B4F85C3091B2002900F0C080994280F0CD
:1054C000BD80A4F85E20C069B0F5807F00F0A9809F
:1054D000206850E8000F216820F4807041E8000245
:1054E000F2B1206850E8000F216820F4807041E894
:1054F0000002002A1FBF206850E8000F216820F436
:1055000080701CBF41E80002002A09D0206850E8E2
:10551000000F216820F4807041E80002002AD7D1F2
:10552000206850E8020F216820F0010041E80202E3
:10553000F2B1206850E8020F216820F0010041E834
:105540000202002A1FBF206850E8020F216820F0E5
:1055500001001CBF41E80202002A09D0206850E87F
:10556000020F216820F0010041E80202002AD7D191
:10557000206850E8020F216820F0400041E8020254
:10558000F2B1206850E8020F216820F0400041E8A5
:105590000202002A1FBF206850E8020F216820F095
:1055A00040001CBF41E80202002A09D0206850E8F0
:1055B000020F216820F0400041E80202002AD7D102
:1055C0002020C4F88C000020E066206850E8000F1E
:1055D000216820F0100041E80002F2B1206850E894
:1055E000000F216820F0100041E80002002A1FBFD0
:1055F000206850E8000F216820F010001CBF41E82F
:105600000002002A09D0206850E8000F216820F02D
:10561000100041E80002002AD7D1D4F88000FBF73F
:10562000EBFA02202067B4F85C00B4F85E10401A70
:1056300081B22046BDE87040FFF7CEBA8B427FF4BE
:1056400095ACC069B0F5807F7FF490AC02202067F4
:105650002046BDE87040FFF7BFBA00000000000020
:1056600010B5D8B10446D0F8880028B9002084F8D5
:105670008400204600F028F82420C4F88800206820
:10568000A16A0268002922F00101016002D02046CF
:1056900001F0E2F8204602F047F908B1012010BD00
:1056A0002068416821F490414160816821F02A011D
:1056B0008160016841F0010101602046BDE81040B1
:1056C00001F03AB9000000002DE9F047B6B00446F9
:1056D00002A8B8210025CDE93455CDE932553195E0
:1056E000FAF73BFF44F200412068C4F2000188420F
:1056F00058D044F60001C4F20001884200F0BE8098
:1057000045F20001C4F20001884240F0468102A83F
:105710000026039602270297FDF7EEFA08B1FBF781
:105720004BFA44F2E04040F60044C5F60200C5F6EC
:10573000020431AD816841F480118160816801F417
:10574000801101910199016841F002010160016835
:1057500001F0020101910199016841F00801016025
:105760000068294600F00800019001984FF40050AD
:10577000CDE931070E203590A4F50060CDE9336600
:10578000FCF752FF04202946CDE931070820359067
:105790002046CDE93366FCF747FF3520042100227F
:1057A0003524F5E002A8039502250295FDF7A4FA39
:1057B00008B1FBF701FA44F2E04040F21008C5F6E8
:1057C00002000026C4F20208816841F400318160C1
:1057D000816801F4003101910199016841F00801EB
:1057E0000160006831A900F0080001900198702064
:1057F000CDE931050720359040F600403396C5F6D7
:1058000002003496FCF710FF40F20C652B20C2F228
:1058100000454FF48067C5E901062846C5F80080B9
:10582000EE60C5E90476C5E90666C5E90866FCF7D9
:10583000E7F908B1FBF7C0F9C4F8805008F1180087
:10584000AC6340F28465C2F2004505F108012860AE
:105850002C2068604020C1C128466E62C5E90566FB
:10586000C5E90766FCF7CCF908B1FBF7A5F9E567D0
:105870002620AC6302210022262489E002A800270A
:1058800003974FF00208CDF80880FDF735FA08B10C
:10589000FBF792F944F2E04040F60045C5F60200FD
:1058A000C5F6020531AE40F210098168C4F2020962
:1058B00041F48021816081684FF0070A01F4802162
:1058C00001910199016841F002010160016801F054
:1058D000020101910199016841F00801016000682D
:1058E000314600F00800019001984FF48040CDE966
:1058F0003108A5F5006033973497CDF8D4A0FCF7B4
:1059000093FE4FF440703146CDE931082846CDF87A
:10591000D4A0CDE93377FCF787FE40F2FC6509F1AE
:105920003000C2F200454FF4806628602D20C5E9A2
:1059300001072846EF60C5E90467C5E90677C5E9B0
:105940000877FCF75DF908B1FBF736F9C4F8805029
:1059500009F14800AC6340F27475C2F2004528605A
:105960002E2068604020A8600020C5E90306C5E934
:105970000500C5E9070068622846FCF741F908B14F
:10598000FBF71AF9E5672720AC63022100222724E0
:10599000FDF706F82046FCF7EFFF36B0BDE8F087CC
:1059A000D0F88C30202B07D10123002918BF002A02
:1059B00006D11846704700BF02231846704700BF43
:1059C00080B50023C36640F60043D0F800C0C5F69A
:1059D00000039C4503D0DCF804301B0204D402F021
:1059E0009FFA002080BD00BF036853E800CFD0F8C5
:1059F00000E04CF080634EE8003CBCF1000FEED0BC
:105A0000036853E800CFD0F800E04CF080634EE824
:105A1000003CBCF1000F1FBF036853E800CFD0F873
:105A200000E04CF080631CBF4EE8003CBCF1000F6E
:105A3000D5D0036853E800CFD0F800E04CF0806385
:105A40004EE8003CBCF1000FCED1C8E700000000DA
:105A500045F200010068C4F20001884218BF704797
:105A6000FAF726BE000000007047000000000000AA
:105A700010B50446D0F88800202833D100294FF013
:105A800001005DD0002A134608BF10BD21654FF00C
:105A9000000EA4F854302120A4F85630C4F890E049
:105AA000C4F88800E06FF8B146F6516C46F6117202
:105AB000C0F6000CC0F60002C0E90FC246F6C122D3
:105AC000C0F60002C0E9132E22682832FCF7C4FB9E
:105AD00050B11020C4F890002020C4F888000120A4
